:020000040800F2
:100000006005002045010008E1370008E3370008DB
:10001000E9370008EB370008ED3700080000000062
:10002000000000000000000000000000EF370008A2
:10003000F137000800000000F3370008F53700082A
:100040005F0100085F0100085F0100085F01000810
:100050005F0100085F0100085F0100085F01000800
:100060005F0100085F0100085F0100085F010008F0
:100070005F0100085F0100085F0100085F010008E0
:100080005F0100085F0100085F0100085F010008D0
:100090005F0100085F0100085F010008C725000834
:1000A0005F0100085F0100085F0100085F010008B0
:1000B000671D0008251E0008B71E00085F01000824
:1000C0005F0100085F0100085F0100085F01000890
:1000D0005F010008372E0008F3320008712E000877
:1000E0005F0100085F0100085F0100085F01000870
:1000F0005F0100085F0100085F0100085F01000860
:100100005F0100085F0100085F0100085F0100084F
:100110005F0100085F0100085F0100085F0100083F
:100120005F0100085F0100085F0100085F0100082F
:10013000DFF80CD005F0D8F9004800473933000843
:10014000600500200648804706480047FEE7FEE7B6
:10015000FEE7FEE7FEE7FEE7FEE7FEE7FEE7FEE777
:1001600011020008310100080CB500220192009232
:100170005248016841F4803101604FF4A063016886
:1001800001F4003100910199491C0191009911B9C4
:1001900001999942F3D10168890302D501210091A7
:1001A00000E000920099012930D145490A6842F0E7
:1001B00010020A600A6822F003020A600A6842F02C
:1001C00002020A604168416041684160416841F44F
:1001D00080614160416821F47C114160416841F4D3
:1001E000E8114160016841F0807101600168890196
:1001F000FCD5416821F003014160416841F00201F2
:1002000041604168C1F381010229FAD10CBDABE71D
:1002100010B52A48016841F0010101604168294A8E
:10022000114041600168284A11400160016821F4D1
:1002300080210160416821F4FE0141604FF41F01FB
:100240008160FFF7E4FF21494FF00060086010BDB6
:1002500010B51A4A506800F00C011D4B1D480029CA
:100260000ED004290ED008290ED003605168194A17
:10027000C1F30311121D515C0268CA40026010BD37
:100280000360F3E70360F1E7516801F4701153680C
:1002900003F48033022404EB914133B153689B0390
:1002A00007D50D4B59430160E0E70B4B5943016003
:1002B000DCE7074B59430160D8E70000001002401B
:1002C000002002400000FFF8FFFFF6FE08ED00E00E
:1002D00000127A000000002000093D002A4908436E
:1002E0002A490860704770B50F23C278012601784B
:1002F000002A1ED0254A126802F4E062C2F5E062CC
:10030000120AC2F10404D3404578A54082781A400D
:100310002A43120101F1E02181F80024007800F065
:100320001F018E404009800000F1E020C0F800610C
:1003300070BD01F01F0086404809800000F1E020F8
:10034000C0F8806170BD124A114001430F48001F80
:10035000016070470D4A121D002903D01168014346
:100360001160704711688143116070474FF0E021C0
:10037000042804D0086920F0040008617047086967
:1003800040F00400086170470000FA050CED00E041
:1003900080FFFF1F384900200860091D0860091D03
:1003A0000860091D086034493448143108607047FA
:1003B00030B5314A83790168002B2AD013688B430A
:1003C0001360111D0B680468A3430B60017911448D
:1003D0000B68046823430B60274C083421680368CA
:1003E00099432160231D19680568A9431960417963
:1003F000102905D011440A68006802430A6030BD24
:10040000216802681143216019680068014319607E
:1004100030BD0079104402688A43026030BD00217B
:10042000016001710C2242718171704712491031D3
:100430000A6802430A607047014600200E4A1432DF
:1004400012680A4200D0012070470B49143108603D
:10045000704701460020084A12680A40064B1433D0
:100460001B680B4202D0002A00D0012070470249CD
:10047000143108607047000000040140FFFF0F00C6
:1004800010B59C49884209D10121042000F07DFA71
:100490000021BDE81040042000F077BA9649884258
:1004A00009D10121082000F070FA0021BDE81040B8
:1004B000082000F06ABA9149884209D10121102030
:1004C00000F063FA0021BDE81040102000F05DBA92
:1004D0008B49884209D10121202000F056FA0021E1
:1004E000BDE81040202000F050BA8649884209D16A
:1004F0000121402000F049FA0021BDE810404020D1
:1005000000F043BA8049884209D10121802000F0DF
:100510003CFA0021BDE81040802000F036BA7B494B
:1005200088420AD184150121204600F02EFA204687
:10053000BDE81040002100F028BA10BD10B501211F
:10054000084600F022FA0021BDE81040012000F02A
:100550001CBA2DE9F0410022CC7804F00F03E40628
:1005600001D58C7823430C784FF00F0714F0FF0F60
:100570004FF0010C1CD005680CFA02F40E882640DE
:10058000A64211D1960007FA06F825EA080503FAF3
:1005900006F848EA0505CE78282E02D0482E02D06B
:1005A00002E0446100E00461521C082AE4D30560C3
:1005B0000A88FF2A1ED94568002202F108060CFAB3
:1005C00006F40E882640A64210D1960007FA06F8D7
:1005D00025EA080503FA06F848EA0505CE78282E2C
:1005E00000D14461CE78482E00D10461521C082A03
:1005F000E3D34560BDE8F0814FF6FF710180022131
:1006000081700421C17070470246002092680A423E
:1006100000D001207047806880B2704702460020F9
:10062000D2680A4200D001207047C06880B270478B
:100630000161704741617047002A01D00161704734
:1006400041617047C160704741F4803282618161CD
:10065000826181698069704710B52D4B1A684FF629
:100660008074224042EA00100843186010BD2949F6
:10067000C8617047F0B5264C002801DAE36900E054
:100680006368C0F30346420D120185B2C0F30157FF
:100690009540032F07D0C2020CD50322B2409343EA
:1006A00043F0706209E023F07062636823F07063C6
:1006B000636002E0AB4343F0706201B12A4300285B
:1006C00001DAE261F0BD6260F0BD10B58A07120F79
:1006D0000F23934021F003040D4921448C689C436F
:1006E0008C608B68904003438B6010BD0949DC31FE
:1006F0000860704700080140000C014000100140F4
:100700000014014000180140001C0140002001407D
:100710000000014000002042B448016841F001019E
:1007200001604168B24A114041600168B14A11401C
:100730000160016821F480210160416821F4FE011B
:1007400041604FF41F0181607047A8490A6822F494
:1007500080320A600A6822F480220A60B0F5803F85
:1007600007D0B0F5802F03D1086840F4A0200860BE
:100770007047086840F480300860704703460020E6
:1007800059099A4A01290AD002290AD0516A03F06C
:100790001F02012393400B4200D0012070471168D3
:1007A000F5E7116AF3E718B5002000904FF4A06454
:1007B0003120FFF7E3FF0099491C00910099A14205
:1007C00001D00028F4D03120FFF7D8FF08B1012074
:1007D00018BD002018BD854A116821F0F80141EAD2
:1007E000C000106070478449086070477F4B5A68AA
:1007F00022F47C1208431043586070477E49086613
:1008000070477A4A516821F00301014351607047F3
:100810007648406800F00C007047744A516821F037
:10082000F001014351607047704A516821F4E06162
:100830000143516070476D4A516821F4605141EAAB
:10084000C00050607047694A002903D0517A0143C3
:1008500051727047517A8143517270476649D8315D
:1008600008607047614A516821F44041014351607A
:1008700070475E49002220310A7001F820290128C2
:1008800005D0042802D1052081F8200070470120FE
:1008900081F82000704759490860704753490A6A37
:1008A00002430A627047554944390860704710B5E1
:1008B0004E4A516801F00C01514B002927D0042900
:1008C00027D0082927D00360516801F0F0010909F9
:1008D0004C4B5C5C0168E1404160546804F4E064A6
:1008E000240A1C5D21FA04F48460546804F4605402
:1008F000E40A1B5DD940C160526802F44042920B89
:10090000404B1B1F9A5CB1FBF2F1016110BD03600B
:10091000DAE70360D8E7516801F47011536803F413
:100920008033022404EB914133B153689B0307D514
:10093000354B59430160C7E7334B59430160C3E767
:100940002F4B59430160BFE7284A002903D0516962
:100950000143516170475169814351617047234A96
:10096000002903D0916901439161704791698143E6
:10097000916170471D4A002903D0D1690143D161BB
:100980007047D1698143D1617047184A002903D06B
:10099000D1680143D1607047D1688143D16070470D
:1009A000124A002903D0116901431161704711698E
:1009B00081431161704711494039086070470E4901
:1009C000C86470470949C87170470848416A41F0D6
:1009D00080714162704701460020044A92680A42D1
:1009E00000D0012070470149887270470010024012
:1009F0000000FFF8FFFFF6FE000042428004424282
:100A000000127A001800002000093D0010B5A94925
:100A100088420AD1841401212046FFF7B6FF204600
:100A2000BDE810400021FFF7B0BFA34988420AD1BA
:100A3000041401212046FFF7B3FF2046BDE8104013
:100A40000021FFF7ADBF9D4988420AD1C41301219F
:100A50002046FFF7A5FF2046BDE810400021FFF724
:100A60009FBF10BD30B5028802F441530A884C88FC
:100A7000CD8822438C882C4322430C8922434C8905
:100A800022438C892243CC8922431A430280828BE1
:100A900022F400628283098A018230BDF0B585B0FC
:100AA00005460C46022000210126AA8B4FF2400386
:100AB0001A40AA8302222A84AF8BA268022A21D07C
:100AC000A08800B102266846FFF7F1FE0098E18891
:100AD000B1F5007F2CD07101B0FBF1F000EB80008C
:100AE000A1684000B0FBF1F0401D80B20A21B0FBCC
:100AF000F1F000F00101401AC0F34F004FF6FF7211
:100B000002EA0121821EFE2A01D302200021E2888E
:100B1000084302432A8420886188A2890843A18867
:100B200011430843384340F40060A88305B0F0BD8A
:100B3000000A00EB8000A1684000B0FBF1F0401D0E
:100B400080B2D3E70021018041808180C180018192
:100B500041818181C181072101827047002101808B
:100B600041808180C180022282608181704700299A
:100B700004D0018841F0400101807047018821F0D4
:100B8000400101807047002904D0818B41F48061CD
:100B900081837047818B21F48061818370470909CB
:100BA00001238B4099B2002A03D082880A438280B5
:100BB000704782888A4382807047002A03D08288E7
:100BC0000A438280704782888A438280704781818D
:100BD000704780897047A1F57E42FF3A04D00188B2
:100BE00041F4807101807047018821F48071018097
:100BF0007047002904D0818841F00401818070474A
:100C0000818821F0040181807047028822F400620B
:100C1000028002880A4302807047018841F48051B3
:100C200001807047002904D0018841F400510180FF
:100C30007047018821F4005101807047012901D0DB
:100C4000008B7047808A7047008A7047B1F5804FEB
:100C500004D0018821F4804101807047018841F46B
:100C60008041018070470246002012890A4200D06C
:100C700001207047C9430181704730B5024600200A
:100C800001F00F03012505FA03F4A3B2090905FADF
:100C900001F4A4B29188214012891A4202D000299D
:100CA00000D0012030BD01F00F0201219140C94365
:100CB000018170470030014000380040003C004096
:100CC00010B5FE4988420AD1C41401212046FFF71D
:100CD0005CFE2046BDE810400021FFF756BEB0F193
:100CE000804F0CD0F649884213D101210220FFF732
:100CF00057FE0021BDE810400220FFF751BE012140
:100D00000846FFF74DFE0021BDE810400120FFF727
:100D100047BEEC49884209D101210420FFF740FE7B
:100D20000021BDE810400420FFF73ABEE6498842A2
:100D300009D101210820FFF733FE0021BDE8104052
:100D40000820FFF72DBEE149884209D1012110207A
:100D5000FFF726FE0021BDE810401020FFF720BE5F
:100D6000DB49884209D101212020FFF719FE00212B
:100D7000BDE810402020FFF713BED64988420AD1B3
:100D8000441401212046FFF700FE2046BDE8104034
:100D90000021FFF7FABDD04988420AD10121CC04D5
:100DA0002046FFF7F2FD2046BDE810400021FFF786
:100DB000ECBDCA4988420AD101210C052046FFF743
:100DC000E4FD2046BDE810400021FFF7DEBDC44928
:100DD00088420AD101214C052046FFF7D6FD204666
:100DE000BDE810400021FFF7D0BDBE49884209D1BF
:100DF00001214020FFF7D4FD0021BDE81040402034
:100E0000FFF7CEBDB849884209D101218020FFF704
:100E1000C7FD0021BDE810408020FFF7C1BDB349E8
:100E200088420AD1841501212046FFF7B9FD2046EA
:100E3000BDE810400021FFF7B3BDAD4988420AD19B
:100E400001210C042046FFF7A0FD2046BDE810401C
:100E50000021FFF79ABDA74988420AD101214C041D
:100E60002046FFF792FD2046BDE810400021FFF725
:100E70008CBDA14988420AD101218C042046FFF78C
:100E800084FD2046BDE810400021FFF77EBD10BD67
:100E900030B50288894C8F4DA0420DD0A8420BD0AE
:100EA000B0F1804F08D0864B984205D0854B9842D0
:100EB00002D0854B984203D122F070034A881A432E
:100EC000824B984206D0824B984203D022F4407362
:100ED000CA881A4302808A8882850A880285A042CD
:100EE0000AD0A84208D0824A904205D0814A904256
:100EF00002D0814A904201D1097A01860121818282
:100F000030BD30B5028C22F001020284028C83884D
:100F1000048B24F0700424F003050C882C4322F089
:100F200002020D8915434A882A43644DA8420BD01A
:100F3000684DA84208D06E4DA84205D06D4DA8421C
:100F400002D06D4DA8420FD122F008054A892A43EC
:100F500022F004058A882A4323F4807323F4007363
:100F60008D891D43CB892B4383800483C988818667
:100F7000028430BD70B5028C22F010020284028C13
:100F80008388048B24F4E04424F440760D884FF6E3
:100F9000FF7404EA0525354322F020020E8904EA95
:100FA000061616434A8804EA02123243434EB04200
:100FB00002D0484EB04217D122F080024E8904EA96
:100FC0000616164326F040068A8804EA02123243C7
:100FD00023F4806323F400638E8904EA86061E43AB
:100FE000CB8904EA8303334383800583C98801875F
:100FF000028470BD70B5028C22F480720284028C6F
:101000008388848B24F0700424F003040D88254326
:1010100022F400720E894FF6FF7404EA0626164386
:101020004A8804EA02223243244EB04202D0294EBA
:10103000B04217D122F400664A8904EA0222324300
:1010400022F480668A8804EA0222324323F4805321
:1010500023F400538E8904EA06161E43CB8904EA62
:101060000313334383808583C9888187028470BDDD
:1010700070B5028C22F480520284058C8288838BA6
:1010800023F4E04323F440760C884FF6FF7303EA21
:101090000424344325F400550E8903EA06362E4312
:1010A0004D8803EA05353543044EB04202D0094E5F
:1010B000B04226D122F480468A891FE0002C0140EC
:1010C0000004004000080040000C004000100040F8
:1010D0000014004000340140004C01400050014029
:1010E0000054014000180040001C00400020004057
:1010F00000400140004401400048014003EA8212E0
:10110000324382808483C988A0F84010058470BD72
:10111000828B22F440628283828B4FF6FF7303EA54
:1011200001210A4382837047F0B5048C24F4805473
:101130000484868B048C4FF6FF7505EA013726F48C
:10114000734605EA0222324305EA03331343F74AA2
:1011500090420ED0F64A90420BD0B0F1804F08D0AA
:10116000F44A904205D0F44A904202D0F34A9042A9
:1011700005D124F40051394341F4805104E024F4B2
:1011800002420A4342F4805183830184F0BD828B82
:1011900022F00C028283828B0A4382837047F0B56F
:1011A000048C24F480740484858B048C4FF6FF77C0
:1011B00007EA012625F0F30507EA031313432B433F
:1011C000DA4A90420ED0DA4A90420BD0B0F1804F0A
:1011D00008D0D84A904205D0D74A904202D0D74A88
:1011E000904205D124F40071314341F4807104E050
:1011F00024F420620A4342F4807183830184F0BDA9
:10120000028B22F440620283028B4FF6FF7303EAE3
:1012100001210A4302837047F0B5048C24F01004C6
:101220000484068B048C4FF6FF7505EA011726F43B
:10123000734605EA0333334305EA02221A43BB4BE4
:1012400098420ED0BA4B98420BD0B0F1804F08D0E4
:10125000B84B984205D0B84B984202D0B74B984251
:1012600005D124F02001394341F0100104E024F0BD
:10127000A0030B4343F0100102830184F0BD028BF5
:1012800022F00C020283028B0A430283704770B57E
:10129000048C24F001040484058B048C25F0F305F0
:1012A0004FF6FF7606EA031313432B439F4A9042FF
:1012B0000ED09F4A90420BD0B0F1804F08D09D4A8B
:1012C000904205D09C4A904202D09C4A904205D15F
:1012D00024F002020A4342F0010104E024F00A0271
:1012E0000A4342F001010383018470BD70B50546D5
:1012F0000C468E48854209D08D48854206D0B5F10E
:10130000804F03D08B48854200D08B48208861886D
:10131000A288238958B1042811D0082817D028465C
:10132000FFF702FFE1882846BDE87040F0E6284656
:10133000FFF7ADFFE1882846BDE870409FE72846EB
:10134000FFF76AFFE1882846BDE8704058E7284665
:10135000FFF725FFE1882846BDE8704017E72DE933
:10136000F04107460C46002501266188002900D17E
:101370000225A288012A00D102262088238988B16B
:101380003846FFF749FFE1883846FFF739FF2389E0
:10139000324629463846FFF77AFFE1883846BDE8ED
:1013A000F0416CE73846FFF772FFE1883846FFF7F7
:1013B00066FF2389324629463846FFF72DFFE1882C
:1013C0003846BDE8F0411BE710B50A884B88CC8849
:1013D0001A438B8823431A430B891A434B89898903
:1013E0001A430A43A0F8442010BD4FF6FF718180D4
:1013F00000210180C180418001727047002101807D
:1014000041808180C180018141818181C18170479A
:1014100000210180418001228280C18001817047CA
:101420000021018041808180C180018141818181D1
:101430007047002904D0018841F001010180704704
:10144000018821F0010101807047002905D030F8A2
:10145000441F41F400410180704730F8441FC1F33C
:101460000E0101807047002A03D082890A438281DD
:10147000704782898A438281704781827047114315
:10148000A0F848107047002A03D082890A4382815D
:10149000704782898A4382817047018921F0070160
:1014A00001817047028922F070020A43028170476D
:1014B00000B503461846FFF7F5FF188940F007000E
:1014C000188100BD70B50D4604461146602D0CD044
:1014D00001222046FFF7DBFE29462046FFF7E2FF08
:1014E000208940F00700208170BD01222046FFF7CF
:1014F00093FEF1E730B50489E4B24FF6FF7505EAD3
:10150000032313430B432343038130BD10B504462B
:101510002046FFF7EFFF208920F0070040F007008A
:1015200020F0700040F07000208110BD002C0140C0
:10153000003401400004004000080040000C00405E
:1015400010B504462046FFF7D5FF208940F48040BF
:101550002081EAE7018582827047028822F07002CA
:101560000A430280704770B50589048B068C25F00C
:1015700007050D434FF6FC410C4040F201110C43AE
:1015800026F022064FF6FF7101EA031111433143A1
:1015900005810483018470BD028B22F070020A432E
:1015A00002837047028B22F4E0424FF6FF7303EA96
:1015B0000121114301837047828B22F070020A439C
:1015C00082837047828B22F4E0424FF6FF7303EA76
:1015D0000121114381837047002904D0018841F023
:1015E000800101807047018821F0800101807047EF
:1015F000002904D0818841F00401818070478188EE
:1016000021F0040181807047002904D0818841F0D5
:10161000080181807047818821F00801818070472E
:10162000002904D0818841F00101818070478188C0
:1016300021F0010181807047028B22F008020A43E9
:1016400002837047028B22F400624FF6FF7303EAB5
:101650000121114301837047828B22F008020A4363
:1016600082837047828B22F400624FF6FF7303EA95
:101670000121114381837047028B22F004020A4347
:1016800002837047028B22F480624FF6FF7303EAF5
:101690000121114301837047828B22F004020A4327
:1016A00082837047828B22F480624FF6FF7303EAD5
:1016B0000121114381837047028B22F080020A438B
:1016C00002837047028BC2F30E024FF6FF7303EAE8
:1016D0000121114301837047828B22F080020A436B
:1016E00082837047828BC2F30E024FF6FF7303EAC8
:1016F0000121114381837047028C22F002020A43C8
:1017000002847047028C22F008020A430284704768
:10171000028C22F020024FF6FF7303EA01111143FD
:1017200001847047028C22F080024FF6FF7303EAB7
:101730000111114301847047028C22F400724FF6AC
:10174000FF7303EA0121114301847047028C22F4E4
:1017500000624FF6FF7303EA0121114301847047D1
:10176000028C22F400524FF6FF7303EA0131114359
:101770000184704710B501238B40048C9C43048482
:10178000038C8A4013430384CFE610B504238B40B7
:10179000048C9C430484038C8A4013430384C4E672
:1017A00030B500F1180301248C40058CA543058455
:1017B000002911D008290FD0091FC1F34E00184489
:1017C000016821F4E041016001684FF6FF7303EA0C
:1017D00002221143016030BD03EB5100016821F08A
:1017E0007001016001681143016030BD002904D01F
:1017F000018841F0020101807047018821F0020157
:1018000001807047002904D0018841F00401018063
:101810007047018821F0040101807047002904D03D
:10182000818841F0800181807047818821F08001AA
:1018300081807047028822F00802028002880A43F1
:1018400002807047828822F07002828082880A4378
:1018500082807047028922F00702028102890A43CE
:1018600002817047028922F08002028102890A43C4
:1018700002817047818470478185704781867047F7
:101880000187704781877047A0F840107047028831
:1018900022F44072028002880A4302807047808EE0
:1018A0007047008F7047808F7047B0F840007047D6
:1018B000808C7047008D704702460020128A0A42D1
:1018C00000D001207047C9430182704702460020C2
:1018D000138A0B4092890A40002B02D0002A00D0C4
:1018E00001207047C94301827047000010B5E149EB
:1018F00088420AD101218C032046FFF746F8204692
:10190000BDE810400021FFF740B8DB4988420AD10A
:1019100001214C042046FFF743F82046BDE8104063
:101920000021FFF73DB8D54988420AD101218C0436
:101930002046FFF735F82046BDE810400021FFF7AC
:101940002FB8CF4988420AD10121CC042046FFF7A5
:1019500027F82046BDE810400021FFF721B8C9490B
:1019600088420AD101210C052046FFF719F82046CC
:10197000BDE810400021FFF713B810BD30B585B0A9
:1019800004460D46208A4CF6FF710840E988014361
:101990002182A0894EF6F3110840A9882A891143B3
:1019A0006A8902431143A181A08A4FF6FF41084092
:1019B000A9890143A1826846FEF779FFAD488442B8
:1019C00001D1039800E00298A189090408D500EB31
:1019D000C00101EB001029684900B0FBF1F007E0FD
:1019E00000EBC00101EB001029688900B0FBF1F0A9
:1019F0006422B0FBF2F109010B096FF018056B438B
:101A000000EB8300A3891D044FF0320307D503EBDD
:101A1000C000B0FBF2F000F00700084306E003EB63
:101A20000010B0FBF2F000F00F000843208105B079
:101A300030BD4FF41651016000218180C1800181C9
:101A40000C2242818181704710B5038A4FF2FF0258
:101A500013400A884C8822438C88C9880C4322434F
:101A60001A43028210BD0021018041808180C18023
:101A70007047002904D0818941F400518181704769
:101A8000818921F400518181704710B540F66A13B5
:101A9000C1F3421301F01F040121A140012B07D023
:101AA000022B07D014303AB102680A43026010BD1D
:101AB0000C30F8E71030F6E702688A43026010BD88
:101AC000002A03D0828A0A4382827047828A8A432C
:101AD00082827047028A22F00F020282028A0A433F
:101AE00002827047828922F40062828182890A43DD
:101AF00082817047002904D0818941F002018181EF
:101B00007047818921F0020181817047028A22F0A9
:101B100020020282028A0A4302827047002904D00E
:101B2000018A41F4804101827047018A21F4804199
:101B300001827047C1F30801818070478088C0F33B
:101B400008007047818941F0010181817047028B53
:101B5000D2B20283028B42EA012101837047028BD9
:101B600002F47F420283028B0A43028370470029FA
:101B700004D0818A41F0200181827047818A21F05E
:101B8000200181827047002904D0818A41F0100130
:101B900081827047818A21F010018182704700297B
:101BA00004D0818A41F0080181827047818A21F046
:101BB000080181827047002904D0818941F40041E5
:101BC000818170478189C1F30E01818170470029AD
:101BD00004D0818A41F4006181827047818A21F4B6
:101BE000006181827047828A22F004028282828AA6
:101BF0000A4382827047002904D0818A41F00201A1
:101C000081827047818A21F00201818270470246F9
:101C1000002012880A4200D0012070478A05C9437B
:101C20000180704770B5002440F66A12C1F3421378
:101C300001F01F05012606FA05F2012B0CD0022B3C
:101C40000DD0838A1340090A8E40008830400BB1C2
:101C500000B10124204670BD83891340F3E7038A55
:101C60001340F0E740F66A120A0A01219140C94385
:101C700001807047003801400044004000480040A7
:101C8000004C00400050004010B59C4C0121204603
:101C9000FFF7CFFB2046BDE810400021FFF7EABD6B
:101CA00010B500219548FFF7C4FB95490020086056
:101CB00010BD3EB5934C2046FFF702F80121C80243
:101CC000FEF74DFE40F2CF71ADF8041048F69F418B
:101CD000ADF800100021ADF80610ADF8021069460D
:101CE0002046FFF7D5F8012241212046FFF7BBFB34
:101CF00001212046FFF79DFB3EBD7FB54FF080459B
:101D00002846FEF7DDFF01210846FEF733FE63217A
:101D1000ADF8081048F69F41ADF804100024ADF866
:101D20000A40ADF8064001A92846FFF7B1F80122A4
:101D300041212846FFF797FB01212846FFF779FB51
:101D40004FF4E060FEF7CAFA1C208DF800008DF811
:101D5000014004208DF8020001208DF80300684640
:101D6000FEF7C1FA7FBD10B501218C072046FFF7B1
:101D7000ADFD012814D101212046FFF7B3FD624AD1
:101D800050780D2801D2401C50701178481CC0B208
:101D900010700A2905D25D48016881F001010160D7
:101DA00010BD411C1170162804D258490120083179
:101DB000086010BD0020107010BD7FB54F4D284643
:101DC000FEF77EFF01210220FEF7D4FD4FF44861AB
:101DD000ADF808102321ADF804100024ADF80A4036
:101DE000ADF8064001A92846FFF752F8012241212B
:101DF0002846FFF738FB00212846FFF71AFB4FF46F
:101E0000E060FEF76BFA1D208DF800008DF80140B0
:101E100003208DF8020001208DF803006846FEF7CC
:101E200062FA7FBD10B5354C01212046FFF74EFD0B
:101E3000012809D101212046FFF754FDFFF730FFAB
:101E4000BDE8104000F063BF10BD7FB5304D28469F
:101E5000FEF736FF01210420FEF78CFD40F2E7314A
:101E6000ADF8081048F69F41ADF804100024ADF815
:101E70000A40ADF8064001A92846FFF709F80122FB
:101E800041212846FFF7EFFA01212846FFF7D1FA52
:101E90004FF4E060FEF722FA1E208DF800008DF866
:101EA000014005208DF8020001208DF803006846EE
:101EB000FEF719FA7FBD10B5154C01212046FFF73A
:101EC00005FD012809D101212046FFF70BFD0E4831
:101ED00001218170C178491CC17010BD10B5094C39
:101EE00001212046FFF7F2FC012805D12046BDE87C
:101EF00010400121FFF7F6BC10BD000000040040B7
:101F0000A0012142002C0140280000200C080140C3
:101F100000080040F8B501213820FEF720FD4FF4FD
:101F20008050ADF8000004258DF8035001248DF891
:101F3000024069468D48FEF70CFBE002ADF8000058
:101F40008DF803508DF80240894F69463846FEF7F8
:101F500000FB4FF4DC61ADF8001010268DF8036033
:101F60008DF8024069463846FEF7F3FA0820ADF8CE
:101F700000008DF803608DF802407E4C69462046D3
:101F8000FEF7E7FAF021ADF800108DF8035069462E
:101F90002046FEF7DEFAF8BD08B50020009003E009
:101FA0009DF80000401C00909DF800001928F7D310
:101FB00008BD0020401CC0B20228FBD370476E4809
:101FC000012202600021016001600160026070472F
:101FD00069480122001D026000210160016001606A
:101FE00002607047654800220260012101600160C3
:101FF000016001600260704701226149012809D037
:1020000002280CD0032804D101F5C8718A604A6007
:102010000A607047C1F89821C1F89421704701F512
:10202000C8718A604A600A60704754487038006816
:10203000012801D0002070470120704770B50021B1
:10204000002200254E4C0126C4F89C51FFF7A4FF46
:10205000480001B2D4F82C0108B141F00101C4F8E4
:102060009C61FFF799FF521CD2B2102AECD30846AC
:1020700070BDF0B5002100220025424E404C0127E2
:10208000C4F89C51FFF788FF480001B2D6F8300130
:1020900008B141F00101C4F89C71FFF77DFF521CAB
:1020A000D2B2102AECD30846F0BD10B5FFF732FFCC
:1020B0000120FFF7A1FFBDE8104093E72DE9F041B3
:1020C00006460D46FFF77BFF082D00D908252E4850
:1020D000D0F818110029FBD1294F0020C7F894012E
:1020E000002447F6FF780DE0FFF7C3FF010400D599
:1020F000002042F21071484390FBF8F026F81400DB
:10210000641CE4B2AC42EFD30120C7F89401BDE8EF
:10211000F0812DE9F04106460D46FFF759FF082DE5
:1021200000D908251848D0F81C110029FBD1144FFC
:102130000020C7F89801FFF73CFF002447F6FF781E
:102140000DE0FFF77BFF010400D5002041F288314C
:10215000484390FBF8F026F81400641CE4B2AC424B
:10216000EFD30120C7F89801D1E70000000C01402F
:102170000010014000140140A40122428C8122423F
:1021800000002242008021420080224238B5012115
:102190003420FEF7E4FBA220ADF8000010248DF8F7
:1021A000034001258DF8025069466148FEF7D1F9D8
:1021B000ADF800408DF803408DF8025069465D4847
:1021C000FEF7C7F94FF47F40ADF800008DF80340EB
:1021D0008DF8025069465848FEF7BBF938BD10B576
:1021E000FFF7D4FF55480121C16000220260416021
:1021F0008260534BC3F89011C161026141618261F9
:102200005048016010BDEAE74C48012101600021FF
:102210000160704770B505464B4C02212046FEF721
:1022200022FD0028F9D029462046BDE87040FEF77F
:10223000CEBC08B50020009003E09DF80000401CD3
:1022400000909DF800002328F7D308BD2DE9F04742
:102250004FF6FF7202EA011141EA0046DFF8EC9006
:102260004FF00008C9F8A481DFF8D4A0CAF8908123
:102270000024374D0127C5F89471FFF7DAFFC4F148
:10228000170026FA00F000F00100C5F89C01C5F81F
:102290009481FFF7CEFF641CE4B2182CEBD3CAF88C
:1022A0009071C9F8A471BDE8F0872DE9F0474FF6A9
:1022B000FF7202EA011141EA0046DFF890904FF008
:1022C0000008C9F8B481224DC5F884810024012793
:1022D000C5F89471FFF7ADFFC4F1170026FA00F0BE
:1022E00000F00100C5F89C01C5F89481FFF7A1FF3B
:1022F000641CE4B2182CEBD3C5F88471C9F8B4712E
:10230000D1E710B540F28D312020FFF7CEFF40F22B
:102310001A712220FFF7C9FF40F6A7212420FFF7FA
:10232000C4FFBDE8104040F6FF712620BDE7000065
:10233000000801400010014000140140A081224229
:1023400000002242840121420030014000802242EC
:102350000000214238B501211420FEF700FBA02027
:10236000ADF8000010258DF8035001248DF80240CF
:1023700069462348FEF7EDF86003ADF800008DF8DC
:1023800003508DF8024069461E48FEF7E2F838BD5A
:1023900010B5FFF7DFFF1C490120086010BD08B52C
:1023A0000020009003E09DF80000401C00909DF884
:1023B00000001428F7D308BD2DE9F0470646DFF8E2
:1023C0004C904FF00008C9F8B4810024104D01274B
:1023D000C5F89481FFF7E3FFC4F10F0026FA00F07F
:1023E00000F00100C5F89C01C5F89471FFF7D7FF14
:1023F000641CE4B2102CEBD3C9F8B471BDE8F087CB
:102400000008014000100140B401224200002242B5
:10241000000021422DE9F8430027BC46A0F50073D7
:102420004FF400784FF6FF7643450BD298B206EA98
:10243000400460183C2801D9022714E0324D4FF0C7
:10244000010C10E040450DD206EA40046318542BFD
:1024500001D9022707E02C4D543D282803D14FF025
:10246000010C00E0022767B9002308E0D018E61845
:102470004078A8552E44D05C70709B1CDBB28B4218
:10248000F4D3BCF1000F09D01F48543890F8500025
:10249000009001220B21684600F02BFA3846BDE877
:1024A000F883F0B50646002300204FF4007C4FF679
:1024B000FF77664509D207EA46046618542E01D90B
:1024C000022011E0104D543D0EE0A6F50076664561
:1024D00009D2B4B207EA440466183C2E01D902209E
:1024E00002E0094D00E0022048B1F0BDE61877197E
:1024F0007F78D754D718AE5D7E709B1CDBB28B42C1
:10250000F4D3F0BD70470000B000002008B54FF4D0
:10251000C060FDF7E3FE17208DF8000001208DF864
:10252000010000218DF802108DF803006846FDF7C8
:10253000DAFE08BD3EB501210D20FEF710FAFFF7C7
:10254000E5FF4024ADF8084004258DF80B5002A9A2
:102550002748FDF7FEFF6002ADF808008DF80B502C
:1025600002A92448FDF7F5FF06210120FEF7ADF88A
:10257000009400208DF804000C208DF80500012047
:102580008DF806006846FDF713FF3EBD70B51A4C86
:102590001A4D6078002802D0D5F83C0120B1D5F85A
:1025A0003C0101280BD00CE04FF47A7001F00BFADB
:1025B00000206070D5F83C0118B9012070BD0120E1
:1025C0006070002070BD10B54020FDF742FF00286C
:1025D00009D04020FDF74BFF094801680648012952
:1025E00002D00221017010BD0121017010BD000058
:1025F000000C0140000801402C0000200000214296
:102600001C81214208B501210920FEF7A8F901210A
:102610009148FEF72FF840F2FB10ADF800001020B3
:102620008DF8030001208DF8020069468B48FDF704
:1026300090FF08BD00E0401E0028FCD1704730B577
:1026400087B001210820FEF78AF901218C0320467A
:10265000FEF790F96110ADF8041003218DF8061013
:1026600018218DF807107D4D01A92846FDF771FF4F
:10267000ADF8044001A92846FDF76BFF6000ADF8F6
:10268000040001A92846FDF764FFFFF7BBFF74496A
:1026900001200862C861886148610861C8604860BB
:1026A00008600021ADF808104FF48272ADF80A20DE
:1026B000ADF80C10ADF80E10ADF810004002ADF8FA
:1026C00012003020ADF81400ADF816100720ADF858
:1026D0001800644C02A92046FEF7C4F901212046E7
:1026E000FEF745FA07B030BD70B505465D4C0221D6
:1026F0002046FEF7B8FA0028F9D029462046FEF712
:1027000066FA01212046FEF7AEFA0028F9D02046ED
:10271000FEF75FFAC0B270BD0121534A09282ED2DC
:10272000DFE800F02D050A0F14191E232800C2F857
:10273000A011002001F0B9B8C2F89C11002001F0EE
:10274000B4B8C2F89811002001F0AFB8C2F89411E3
:10275000002001F0AAB8C2F89011002001F0A5B83D
:10276000C2F88C11002001F0A0B8C2F8841100203A
:1027700001F09BB8C2F88011002001F096B87047B4
:102780000021394A09282ED2DFE800F02D050A0F72
:1027900014191E232800C2F8A011012001F085B8E9
:1027A000C2F89C11022001F080B8C2F898110320F1
:1027B00001F07BB8C2F89411042001F076B8C2F899
:1027C0009011052001F071B8C2F88C11062001F0BB
:1027D0006CB8C2F88411072001F067B8C2F8801104
:1027E000082001F062B8704770B506460C0ACDB2F9
:1027F0003046FFF7C5FFC820FFF71CFF2046FFF754
:1028000073FF04462846FFF76FFF05463046FFF783
:1028100083FF4FF4FA70FFF70DFF7F2C01D30020E8
:1028200070BD45EA042070BD2DE9F0410746002443
:102830004CF28B3631463846FFF7D6FF054432203E
:1028400001F0C1F8641CE4B2282CF3D32820B5FBB6
:10285000F0F080B2BDE8F08100023000000C0140D1
:1028600080812142003800400080214210B5A02024
:1028700000F0F2F918B100F059F9002010BD012064
:1028800010BD2DE9F04105460C46164600F03EF914
:10289000A02000F056F900F092F968B9E0B200F01B
:1028A00050F900F08CF938B900F030F9A12000F0AF
:1028B00048F900F084F938B100F038F95DA002F071
:1028C00047FE0020BDE8F0810024771E0BE000F0F9
:1028D0005CF92855BC4202D000F088F901E000F014
:1028E00095F9641CA4B2B442F1D300F01FF90120A1
:1028F000E8E72DE9F04107460E469046002528E01E
:102900000DB1700717D100F011F9002400F0FEF8A6
:10291000A02000F016F900F052F918B1641CA4B21E
:10292000642CF3D3B4F57A7F0BD0F0B200F009F940
:1029300000F045F928B9785D00F003F900F03FF99F
:1029400018B100F0F3F80020BCE7761CB6B26D1C9D
:10295000ADB24545D4D300F0E9F80120B2E700B5A7
:10296000C1B0002001AAFF211154401C80B2FF28F1
:10297000FAD94FF48072002101A8FFF7BAFF20B105
:1029800030A002F0E5FD41B000BD33A002F0E0FD53
:10299000F9E701B502E00098401E00900098002879
:1029A000F9D108BD30B5ADF5017DFFF75FFF40B34C
:1029B000002041A90854401C80B2FF28FAD94FF4E6
:1029C00080742246002141A8FFF793FF00281CD005
:1029D00026A002F0BDFD2A48FFF7DBFF22460021BA
:1029E00001A8FFF74EFFB0B126A002F0B1FD002410
:1029F00001AD2BA0295D02F0ABFDE04300070ED036
:102A000010E029A002F0A4FDFEE72DA002F0A0FD39
:102A10000DF5017D30BD2FA002F09AFDF8E70DA065
:102A200002F096FD641CA4B2FF2CE2D92EA002F0A5
:102A30008FFDEDE745452072656164206572720A7D
:102A400000000000B2C1B3FD656570726F6DB3C95F
:102A5000B9A6A3A10D0A0000B2C1B3FD65657072ED
:102A60006F6DB3F6B4EDA3A10D0A0000D0B4656597
:102A700070726F6DB3C9B9A6A3A10D0A0000000062
:102A8000FFFF0F00B6C1656570726F6DB3C9B9A65F
:102A9000A3ACCAFDBEDDC8E7CFC2A3BA0D0A0000D1
:102AA0002025303258000000C3BBD3D0BCECB2E2CA
:102AB000B5BDB4AED0D0454550524F4D210D0A00A2
:102AC000D0B4656570726F6DB3F6B4EDA3A10D0A55
:102AD00000000000B6C1656570726F6DB3F6B4EDAD
:102AE000A3A10D0A00000000656570726F6DB6C18C
:102AF000D0B4B2E2CAD4B3C9B9A60D0A000000002E
:102B00000020401CC0B20A28FBD3704770B55A4C55
:102B10004FF4804525616E002661FFF7F1FF656186
:102B2000FFF7EEFF6661BDE87040E9E770B5524C13
:102B30004FF48045656168002061FFF7E1FF256182
:102B400070BD2DE9F041054600244B4E4FF400477F
:102B50004FF48048280602D5C6F8108001E0C6F878
:102B60001480FFF7CDFF3761FFF7CAFF7761072CAD
:102B700001D1C6F810806806050EFFF7C1FF641C7E
:102B8000E4B2082CE6D3BDE8F0812DE9F041002441
:102B90000025394E4FF400476006040E3761FFF7F9
:102BA000AFFFB068400401D5641CE4B27761FFF761
:102BB000A7FF6D1CEDB2082DEED32046E3E770B5FC
:102BC0002D4D4FF480402861FFF79AFF4FF40046E7
:102BD0002E61FFF795FFA868400401D5012400E0AD
:102BE00000246E61FFF78CFF204670BD70B5224C4B
:102BF0004FF480456561FFF783FF6E002661FFF7A4
:102C00007FFF6661FFF77CFF256170BD70B51A4CD0
:102C10004FF480402061FFF773FF4FF400452561BA
:102C2000FFF76EFF6561BDE8704069E708B50121F7
:102C30001020FDF794FE4FF44040ADF80000032053
:102C40008DF8020014208DF8030069460A48FDF74C
:102C500080FCFFF76BFF08BD10B50446FFF7E6FFE9
:102C6000FFF754FF2046FFF76CFFFFF7A8FF04466D
:102C7000FFF75CFF204610BD0010014038B5012170
:102C80000420FDF76CFE4FF40070ADF80000182032
:102C90008DF8030003248DF80240FB4D6946284659
:102CA000FDF757FC2915ADF8001048218DF80310E9
:102CB00069462846FDF74DFCA915ADF800108DF8C2
:102CC000024010218DF8031069462846FDF741FCAB
:102CD000EE490020086038BDEE48ED4981600021D2
:102CE000017041708170FEF7DBBF70B504464FF68E
:102CF000FF700022E84D07E0A65CC3B2734035F8D0
:102D0000133083EA1020521C8A42F5DB70BD70B587
:102D1000FEF7C6FFDF4C2178A170DD4D2878012831
:102D200002D0BDE87040D7E7891ED948FFF7DDFF24
:102D30002178294411F8022D497842EA0121814283
:102D400002D0BDE87040C7E7A560002020700120D8
:102D5000607070BDCF4840787047D0490880081F28
:102D600001884906FCD5704730B585B0012188033C
:102D7000FDF7F5FD4FF4165001900020ADF8080066
:102D8000ADF80A00ADF80C00ADF810000C20ADF85D
:102D90000E00C24C01A9241F2046FEF7EFFD40F2B1
:102DA0002555012229462046FEF76FFE01212046C7
:102DB000FEF75FFE40F227712046FEF753FF2946DB
:102DC0002046FEF74FFF25208DF8000003208DF8E8
:102DD000010002208DF8020001208DF803006846F2
:102DE000FDF781FA05B030BD10B5FFF747FFBDE82C
:102DF0001040B9E700E0401E0028FCD170472DE9E3
:102E0000F04105460E460024A54F0120C7F8A00159
:102E10006420FFF7EFFFA148021F05E0295D018054
:102E200013885B06FCD5641CB442F7D30020C7F8B6
:102E3000A001BDE8F08170B5984C40F22555241FE3
:102E400029462046FEF7EEFE002810D0FEF71CFFB4
:102E500029462046FEF706FF2046FEF76FFE8D4A04
:102E600011784B1C1370936858540120107170BD79
:102E700070B58C4C40F2255529462046FEF7D2FE0F
:102E8000002810D0FEF700FF29462046FEF7EAFE94
:102E90002046FEF753FE7F4A11784B1C137093684F
:102EA00058540220107170BD70B504467B4D2D1F23
:102EB0000AE040212846FEF7AAFE0028F9D014F8BF
:102EC000011B2846FEF736FE20780028F1D170BDA0
:102ED0002DE9F041042400206D4E0327334671781C
:102EE0001A795D79062945EA0228DD789B78A8F1F0
:102EF000010245EA03234FEA480C06F1320546D0A9
:102F000004DC032929D0042904D126E0102953D058
:102F1000172974D032782A7041F08001697001213C
:102F2000A970032438B131782970717841F080019B
:102F30006970A8700324564821463230FFF7D5FE49
:102F40002855000A29194870524D0026EE7028793C
:102F500001287CD002287BD0ABE0FF2A01D30320DC
:102F600005E00CF0FF011846EA1CFFF79AFA00286A
:102F7000D8D131782970717869707179327941EAE4
:102F800002214A00AA7007EB41018CB2CAE7184639
:102F9000321D0221FFF73EFA0028C3D13178297093
:102FA00071786970B178A970F178E9703179297117
:102FB000717969710624B5E7FF2A01D3032006E081
:102FC000B27908F0FF01B2EB410F00D0032028B91D
:102FD0000CF0FF011846F21DFFF71CFA0028A1D1E2
:102FE0003178297071786970B178A970F178E970D9
:102FF0003179297171796971062493E7FFE77D2A98
:1030000001D303200EE0717A327A41EA02214A1E8E
:10301000792A01D3032005E0B27AC9B2B2EB410F9D
:1030200000D0032028B90CF0FF011846EA1CFFF776
:1030300038FA80B9707A317AB27940EA01204006D4
:10304000010EF07940EA0220114A0B3201E012E051
:103050002AE0FFF7DFF9002898D1317829707178DC
:1030600069707179327941EA02214A00AA7007EB4E
:1030700041018CB256E72E710548A41CE1B23230F2
:10308000FFF7BDFE15E0000000080140A00121424D
:10309000EC00002030000020425E000804380140AF
:1030A00000002142004800402E71A11C114800F090
:1030B00082F86E70BDE61CB501228DF80020062155
:1030C0008DF8011000218DF802108DF803208DF885
:1030D00004108DF8050006216846FFF706FE8DF8FE
:1030E0000600000A8DF8070008216846FFF787FEF2
:1030F0001CBD00001E0100203F490880081F0188F8
:103100004906FCD5704770B586B001218804FDF7EB
:1031100031FC01210820FDF722FC4FF48060ADF85E
:10312000140018208DF8170003248DF81640334E34
:1031300005A93046FDF70DFAF014ADF8140004208F
:103140008DF8170005A93046FDF703FA4FF4165025
:1031500001900021ADF80810ADF80A10ADF80C1080
:10316000ADF810100C20ADF80E00234D01A92D1F55
:103170002846FEF703FC01212846FEF77AFC40F2C0
:1031800026612846FEF76EFD6D15ADF814508DF8DA
:10319000164010208DF8170005A93046FDF7D9F923
:1031A00029463046FDF744FA06B070BD00E0401EE7
:1031B0000028FCD170472DE9F04105460E46002459
:1031C000DFF838804FF4007739464046FDF730FA93
:1031D0006420FFF7EBFF0848021F05E0295D01802E
:1031E00013885B06FCD5641CB442F7D339464046CD
:1031F000BDE8F041FDF71EBA04480040000C014054
:103200004B490880081F01884906FCD5704770B5F6
:1032100086B00425ADF8145018208DF8170003204F
:103220008DF81600434E05A93046FDF792F90824A3
:10323000ADF814408DF8175005A93046FDF789F90F
:1032400001214804FDF796FB01210420FDF787FBCF
:103250004FF4E13001900020ADF80800ADF80A000D
:10326000ADF80C00ADF81000ADF80E40304C01A9DF
:10327000241F2046FEF782FB01212046FEF7F9FBC2
:1032800040F225512046FEF7EDFC40F22661204633
:10329000FEF7E8FC06B070BD70B50446244DE1B2FF
:1032A0002D1F2846FEF746FC40212846FEF7AFFCBE
:1032B0000028F9D0204670BD10B51D4C241F2021D8
:1032C0002046FEF7A4FC0028F9D02046BDE81040B7
:1032D000FEF734BC30B50022154D2B1F06E0845C90
:1032E0002C801C886406FCD5521CD2B28A42F6D3CC
:1032F00030BD70B50E4C40F22556241F3146204695
:10330000FEF790FC40F2277529462046FEF78AFC1E
:1033100018B129462046FEF7A5FC31462046FEF7A7
:10332000A1FC29462046BDE87040FEF79BBC00008A
:1033300004440040000801401CB50124002600257B
:1033400000F022FB00F058FAC34800270760FEF7A0
:10335000D4FCFEF732FDFEF778FDFEF7A6FEFEF781
:1033600052FFFFF741FDFFF752FFFFF7CCFEFFF7DB
:10337000C9F8FFF70DF8FFF762F90020FFF71CF816
:10338000FFF774FA10B9B5A002F0E2F80C220021A0
:10339000B948FFF776FADFF8E092DFF8E0A299F893
:1033A000000099F8011040EA0120AAF8000099F8FD
:1033B000020099F80310DFF8C8B240EA0120ABF828
:1033C000000099F8051099F8082099F8063041EAAC
:1033D000026199F80720DFF8AC82120442EA032266
:1033E0001143C8F80810C8F8041099F8091099F8A2
:1033F0000A2041EA0221A8F8021099F80B10A8F857
:103400005010FEF7D9FFBAF800109FA002F0A0F804
:10341000BBF80010A2A002F09BF899F8040001F09C
:1034200082FC99F800004FF0010AFF2805D099F8B6
:103430000100FF2801D0A8F800A09FA002F088F8A2
:10344000DFF8349299F8040099F80310CDE90010E0
:1034500099F8023099F8012099F800109BA002F029
:1034600077F8C9F80070C9F80470C9F808704CF210
:10347000503000F0A8FA00F013FA01F02FFC9DA0E4
:1034800002F066F8DFF87892FFF764FC08B1FFF706
:103490001FFDD8E9011088421DD001240020FEF74D
:1034A0008BFF01F01BFCA8F8547096A002F050F8B6
:1034B000D8F80850284601F0F0FC9A4901F098FC31
:1034C000C9F80400C8F80450A8F8007001F02EFCF8
:1034D000022595480770022D0BD1934800784628A5
:1034E00007D35D48076040F6CC412020FEF7AEFED2
:1034F0000125012D66D18D4801780A2962D3077014
:103500008BA002F025F800F080FAC0B20A2859D149
:103510000025A8F800A00120FFF786F90120FFF799
:1035200083F901F0BFFCEA1E01F0A0FC01F007FDE9
:10353000C9F8000001F0F0FC02460B4682A002F040
:1035400007F8D9F8000001F0BAFCA8F802004B48CF
:10355000DFF824B100888BF80000000A8BF8010026
:10356000474800888BF80200000A8BF8030000F03F
:1035700084FB8BF804009BF8030000909BF802305A
:103580009BF801209BF8001078A001F0E1FFD8F82B
:1035900008008BF80500010A8BF80610010C8BF867
:1035A0000710000E8BF80800B8F802008BF809002D
:1035B000000A8BF80A000B2200215846FFF799F900
:1035C00001F0D1FBDFF8C8B1DBF80001C0B14FF466
:1035D0007A7000F0F8F9DBF800010028FBD1DBF885
:1035E000000168B9B8F8540028B1A8F8547069A06F
:1035F00001F0AEFF04E0A8F854A06BA001F0A8FF12
:10360000B8F8540058B1B8F8000040B18CB10024AB
:1036100000F036FB012669A001F09AFF09E044B9E9
:10362000012401F05BFB01F046FB002667A001F0DE
:103630008FFF6A49087840B13EB10F7000F051FD2C
:1036400000F01BFB00F0FEFF1EE70028FCD00F700F
:1036500001F031FB18E70000BC0121424E6F7420DD
:10366000666F756E6420454550524F4D2044657617
:10367000696365210D0A0000500100204E00002002
:10368000500000205C0000206461373536355F73E0
:10369000747564795F76616C75653D25640A000018
:1036A0006164353535315F73747564795F76616C4B
:1036B00075653D25640A0000454550524F4D206513
:1036C0006C656374726963204F4E0A0065657072A1
:1036D0006F6D5F646174615B355D3D307825782C7A
:1036E000307825782C307825782C307825782C2562
:1036F000640A0000626F6F74696E67210A0000003F
:1037000040000020456E7465722044594E414D4979
:10371000435F4449534348415247452D696E672EE4
:103720002E2E0A0000007A442B00002029000020E1
:10373000456E7465722044594E414D49435F535460
:103740005544590A00000000464C4F575F312D3E4A
:103750006164313131385F73747564795F76616C9F
:1037600075653D2566206D560A000000656570721E
:103770006F6D5F646174615B345D3D307825782CDA
:10378000307825782C307825782C307825780A0008
:10379000000022427072657373204B4559302063DC
:1037A0006C6F7365210A00007072657373204B455E
:1037B0005930207374617274210A00004265676990
:1037C0006E20436F6D70617265210A00436C6F73E8
:1037D0006520436F6D70617265210A002A00002028
:1037E000704701F07BFAFEE7FEE7FEE7FEE7704771
:1037F0007047704700F0F5B8F8B501216420FDF777
:10380000AEF849F60100ADF8000010258DF8035020
:1038100001248DF8024069465348FCF79AFE0326BE
:10382000ADF800608DF803508DF8024069464F48AE
:10383000FCF78FFE4FF6FF70ADF800008DF80350D7
:103840008DF8024069464A48FCF783FE8DF8026015
:10385000ADF8004004208DF8030069464548FCF7A8
:1038600078FE454900200860F8BD44480121016008
:1038700041608160C160016141618161C1617047E6
:103880003E480021016041608160C1600161416189
:103890008161C1617047394901200839086070476A
:1038A0003649002008390860704730B500240123EC
:1038B0003349344A09284ED2DFE800F04D050E178F
:1038C0002029323B4400C1F8AC31C1F8B041C2F804
:1038D0008041C2F8844130BDC1F8AC31C1F8B0318B
:1038E000C2F88041C2F8844130BDC1F8AC31C1F8A2
:1038F000B041C2F88031C2F8844130BDC1F8AC316A
:10390000C1F8B031C2F88031C2F8844130BDC1F88D
:10391000AC31C1F8B041C2F88041C2F8843130BD49
:10392000C1F8AC31C1F8B031C2F88041C2F884317D
:1039300030BDC1F8AC31C1F8B041C2F88031C2F835
:10394000843130BDC1F8AC31C1F8B031C2F880313A
:10395000C2F8843130BDC1F8AC41C1F8B041C2F801
:103960008041C2F8844130BD00080140001401408C
:10397000001801400010014080012142A0012342B3
:1039800000002142008022421A481B490068B0FB17
:10399000F1F04FF0E021B0F1807F01D301200BE086
:1039A00020F07F40401E4861144AF0201070002033
:1039B000886107200861002000B1FEE7086920F057
:1039C00001000861704701B50D48009901604FF092
:1039D000E0210A6942F001020A6101680029FCD174
:1039E00008BD07480168002902D00168491E01602E
:1039F0007047000000000020A086010023ED00E0D9
:103A000048000020FE49087070472DE9FF5F00273D
:103A10000097019702970397FA4DDFF8EC830A2489
:103A20002868B0F17E5F1BDB08216846FEF771FB5A
:103A3000BDF80000B0FBF4F001F02FFA0646F349A0
:103A4000304601F0A3F901F03AFAC8F80C0030460C
:103A500001F062FA02460B46EDA001F079FD1BE091
:103A600008216846FEF72AFBBDF800000321B0FBE1
:103A7000F1F001F012FA0646E449304601F086F909
:103A800001F01DFAC8F80C00304601F045FA024674
:103A90000B46E6A001F05CFDDFF8648343F6AA79EB
:103AA0004FF02D0A98F80000012809D040F6FD7B60
:103AB00002283BD00527042866D0052818D1A9E0A4
:103AC000E1A001F045FD3046296801F055FA16D213
:103AD000B8F80600FEF770FCB8F80610DEA001F09A
:103AE00037FDB8F80600484503D22D30A8F8060087
:103AF000BEE0DFA001F02CFD88F80040B8E0B8F887
:103B0000060000F1E101A8F80410873080B2FEF74A
:103B100053FCA8F806A000212020FEF797FB022006
:103B200088F80000DAA001F013FDA1E0E3A001F0A5
:103B30000FFD3046296801F01FFA12D2B8F80810BC
:103B40002020FEF783FBB8F80800584503D8801CF6
:103B5000A8F808008CE0DDA001F0FAFC88F800402D
:103B600086E0B8F80810A8F80210A8F80870DFA0DE
:103B700001F0EEFCE3A001F0EBFC4CF25030FFF75B
:103B800022FF88F8004073E0E7A001F0E1FCDFF8D5
:103B90007CB22868594601F0F9F8314601F0F6F98F
:103BA0001CD2B8F806002D2801D1A8F80670B8F884
:103BB0000600FEF701FCB8F80610E0A001F0C8FC12
:103BC000B8F80600484503D20930A8F806004FE0CF
:103BD000A7A001F0BDFC88F8004049E059462868DC
:103BE00001F0D4F8314601F0C7F941D8D8A001F06E
:103BF000AFFCB8F806001B3080B2A8F80400FEF74E
:103C0000DBFBA8F806A000212020FEF71FFB88F8A8
:103C100000702DE0D3A001F09BFC7C49286801F0E6
:103C2000B5F8314601F0B2F912D2B8F808102020E8
:103C3000FEF70CFBB8F80800584503D80A30A8F87E
:103C4000080015E0A1A001F083FC88F800400FE017
:103C50004CF25030FFF7B7FEB8F80810A8F8021081
:103C6000A2A001F075FCC4A001F072FC88F800402D
:103C700098F8000004B0BDE8F09FC4480078704791
:103C800010B55F4C608800280ED0A08860B1FFF7A7
:103C9000F4FF01280DD0FFF7F0FF02280CD0BCA0E4
:103CA00001F056FC002010BDC1A001F051FC002025
:103CB00010BDFFF7DAFD01E0FFF7E2FDFFF7EBFDD6
:103CC0004FF47A70FFF77FFE4F48B0F85000092894
:103CD00076D2DFE800F00509111D2D4159769300D9
:103CE000BBA001F035FCFAE161882020FEF7AEFAB6
:103CF000C1A001F02DFCF2E161882020FEF7A6FAB8
:103D000061882220FEF7A2FAC1A001F021FCE6E1C1
:103D100061882020FEF79AFA61882220FEF796FA41
:103D200061882420FEF792FABFA001F011FCD6E1D1
:103D300061882020FEF78AFA61882220FEF786FA41
:103D400061882420FEF782FA61882620FEF77EFA39
:103D5000BBA001F0FDFBC2E161882020FEF776FAEE
:103D600061882220FEF772FA61882420FEF76EFA3D
:103D700061882620FEF76AFA61882020FEF795FA0E
:103D8000B5A001F0E5FBAAE161882020FEF75EFA0C
:103D900061882220FEF75AFA61882420FEF756FA3D
:103DA00061882620FEF752FA61882020FEF77DFA0E
:103DB00061882220FEF779FAADA001F0C9FB8EE1FF
:103DC0008AE161882020FEF741FA61882220FEF70F
:103DD0003DFA61882420FEF739FA61882620FEF733
:103DE00035FA61882020FEF760FA61882220FEF70C
:103DF0005CFA61882420FEF758FA45E148E10000AA
:103E00004C000020440000205C00002000007A44A8
:103E100031305220676561723A6375725F63757203
:103E200072656E743D2566206D410A00334B206734
:103E30006561723A6375725F63757272656E743D27
:103E400025662075410A0000464C4F575F312065BA
:103E50006E746572210A00006164353535312D3E7E
:103E6000766F6C5F737465703D25640A0000000016
:103E7000464C4F57313A616435353531206F757492
:103E8000707574206F7665726C696D6974210A00B3
:103E90002B2B2B2B2B2B2B2B2B2B2B53776974633F
:103EA0006820746F20464C4F575F32204D6F646519
:103EB000202B2B2B2B2B2B2B2B210A00464C4F5727
:103EC0005F3220656E746572210A0000464C4F57C0
:103ED000323A646137353635206F757470757420E9
:103EE0006F7665726C696D6974210A00646137359B
:103EF00036355F73747564795F76616C75653D25E1
:103F0000640A00002B2B2B2B2B2B2B207374756436
:103F1000792073756363657373212121202B2B2B0B
:103F20002B2B2B2B2B2B0A00464C4F575F315F61FD
:103F300020656E746572210A0000000061643535E9
:103F4000353120766F6C5F737465703D25640A00AF
:103F5000464C4F575F315F612066696E69736865D3
:103F600064210A00464C4F575F325F6220656E74D1
:103F70006572210A000000007374756479207375FE
:103F800063636573732121210A0000003C00002057
:103F9000426567696E206572722C62616361757338
:103FA0006520676561723D6E6F6E650A00000000F6
:103FB000426567696E206572722C62616361757318
:103FC00065204E6F496E697456616C75650A000014
:103FD0002B2B2B205761726E696E673A20726567D2
:103FE0005F636D705F6368616E6E656C5F6E756D4B
:103FF0003D30210A000000007265675F636D705FED
:104000006368616E6E656C5F6E756D3D310A0000B0
:104010007265675F636D705F6368616E6E656C5F2C
:104020006E756D3D320A00007265675F636D705F8B
:104030006368616E6E656C5F6E756D3D330A00007E
:104040007265675F636D705F6368616E6E656C5FFC
:104050006E756D3D340A00007265675F636D705F59
:104060006368616E6E656C5F6E756D3D350A00004C
:104070007265675F636D705F6368616E6E656C5FCC
:104080006E756D3D360A0000FEA001F061FA26E073
:1040900061882020FEF7DAF861882220FEF7D6F842
:1040A00061882420FEF7D2F861882620FEF7CEF83A
:1040B00061882020FEF7F9F861882220FEF7F5F8E4
:1040C00061882420FEF7F1F861882620FEF7EDF8DC
:1040D000F2A001F03DFA02E0F6A001F039FA012069
:1040E00010BD70B5FB4C0026F51EB4F85000092831
:1040F0007ED2DFE800F0050B234A82C7FDFCFB00FF
:10410000AFF23410BDE8704001F022BA0120FEF792
:104110008BFB00F0C2FE00F0D2FE80B200F0C2FEC7
:104120002A4600F0A3FE00F0DEFE20826682A68210
:10413000E68226836683A683E68370BD0120FEF7B0
:1041400073FB00F0AAFE00F0BAFE80B200F0AAFEF7
:104150002A4600F08BFE00F0C6FE20820220FEF709
:1041600063FB00F09AFE00F0AAFE80B200F09AFE17
:104170002A4600F07BFE00F0B6FE6082A682E68250
:1041800026836683A683E68370BD0120FEF74CFB81
:1041900000F083FE00F093FE80B200F083FE2A461A
:1041A00000F064FE00F09FFE20820220FEF73CFB40
:1041B00000F073FE00F083FE80B200F073FE2A462A
:1041C00000F054FE00F08FFE60820320FEF72CFB0F
:1041D00000F063FE00F073FE80B200F063FE2A463A
:1041E00000F044FE00F07FFEA082E682268300E01D
:1041F00022E26683A683E68370BD0120FEF714FBEE
:1042000000F04BFE00F05BFE80B200F04BFE2A4651
:1042100000F02CFE00F067FE20820220FEF704FB77
:1042200000F03BFE00F04BFE80B200F03BFE2A4661
:1042300000F01CFE00F057FE60820320FEF7F4FA47
:1042400000F02BFE00F03BFE80B200F02BFE2A4671
:1042500000F00CFE00F047FEA0820420FEF7E4FA16
:1042600000F01BFE00F02BFE80B200F01BFE2A4681
:1042700000F0FCFD00F037FEE08226836683A68313
:10428000E68370BD0120FEF7CFFA00F006FE00F0D5
:1042900016FE80B200F006FE2A4600F0E7FD00F0B0
:1042A00022FE20820220FEF7BFFA00F0F6FD00F0A9
:1042B00006FE80B200F0F6FD2A4600F0D7FD00F0C1
:1042C00012FE60820320FEF7AFFA00F0E6FD00F078
:1042D000F6FD80B200F0E6FD2A4600F0C7FD00F0D2
:1042E00002FEA0820420FEF79FFA02E023E184E0B0
:1042F00020E000F0D2FD00F0E2FD80B200F0D2FD3F
:104300002A4600F0B3FD00F0EEFDE0820520FEF746
:104310008BFA00F0C2FD00F0D2FD80B200F0C2FDC9
:104320002A4600F0A3FD00F0DEFD20836683A6830D
:10433000E68370BD0120FEF777FA00F0AEFD00F0D5
:10434000BEFD80B200F0AEFD2A4600F08FFD00F009
:10435000CAFD20820220FEF767FA00F09EFD00F001
:10436000AEFD80B200F09EFD2A4600F07FFD00F019
:10437000BAFD60820320FEF757FA00F08EFD00F0D0
:104380009EFD80B200F08EFD2A4600F06FFD00F029
:10439000AAFDA0820420FEF747FA00F07EFD00F09F
:1043A0008EFD80B200F07EFD2A4600F05FFD00F039
:1043B0009AFDE0820520FEF737FA00F06EFD00F06E
:1043C0007EFD80B200F06EFD2A4600F04FFD00F049
:1043D0008AFD20830620FEF727FA00F05EFD00F03C
:1043E0006EFD80B200F05EFD2A4600F03FFD00F059
:1043F0007AFD6083A683E68370BD0120FEF714FA80
:1044000000F04BFD00F05BFD80B200F04BFD2A4652
:1044100000F02CFD00F067FD20820220FEF704FA78
:1044200000F03BFD00F04BFD80B200F03BFD2A4662
:1044300000F01CFD00F057FD60820320FEF7F4F948
:1044400000F02BFD00F03BFD80B200F02BFD2A4672
:1044500000F00CFD00F047FDA0820420FEF7E4F917
:1044600000F01BFD00F02BFD80B200F01BFD2A4682
:1044700000F0FCFC00F037FDE0820520FEF7D4F9E7
:104480002AE000007265675F636D705F6368616E4C
:104490006E656C5F6E756D3D370A00007265675F13
:1044A000636D705F6368616E6E656C5F6E756D3DA8
:1044B000380A00002B2B2B207265675F636D705FDD
:1044C0006368616E6E656C5F6E756D2065727221DA
:1044D0000A0000005C00002000F0DFFC00F0EFFCB0
:1044E00080B200F0DFFC2A4600F0C0FC00F0FBFCCC
:1044F00020830620FEF798F900F0CFFC00F0DFFCE7
:1045000080B200F0CFFC2A4600F0B0FC00F0EBFCDB
:1045100060830720FEF788F900F0BFFC00F0CFFCB5
:1045200080B200F0BFFC2A4600F0A0FC00F0DBFCEB
:10453000A083E68370BD0120FEF776F900F0ADFCA4
:1045400000F0BDFC80B200F0ADFC2A4600F08EFC0D
:1045500000F0C9FC20820220FEF766F900F09DFC05
:1045600000F0ADFC80B200F09DFC2A4600F07EFC1D
:1045700000F0B9FC60820320FEF756F900F08DFCD4
:1045800000F09DFC80B200F08DFC2A4600F06EFC2D
:1045900000F0A9FCA0820420FEF746F900F07DFCA3
:1045A00000F08DFC80B200F07DFC2A4600F05EFC3D
:1045B00000F099FCE0820520FEF736F900F06DFC72
:1045C00000F07DFC80B200F06DFC2A4600F04EFC4D
:1045D00000F089FC20830620FEF726F900F05DFC40
:1045E00000F06DFC80B200F05DFC2A4600F03EFC5D
:1045F00000F079FC60830720FEF716F900F04DFC0F
:1046000000F05DFC80B200F04DFC2A4600F02EFC6C
:1046100000F069FCA0830820FEF706F900F03DFCDD
:1046200000F04DFC80B200F03DFC2A4600F01EFC7C
:1046300000F059FCE08370BDAFF28810BDE8704017
:1046400000F086BF7FB50024009401940294039487
:10465000F74D012805D002287ED0F6A000F078FFA3
:104660007FBD08216846FDF754FDB5F850000928C4
:1046700073D2DFE800F0050A1B345581B2EBFD0070
:10468000AFF2B46000F064FF7FBDBDF800006421AC
:10469000484300F002FC00F012FC28626C62AC623D
:1046A000EC622C636C63AC63EC637FBDBDF800000F
:1046B0006421484300F0F1FB00F001FC2862BDF8E2
:1046C00002006421484300F0E8FB00F0F8FB686258
:1046D000AC62EC622C636C63AC63EC637FBDBDF8D1
:1046E00000006421484300F0D8FB00F0E8FB28629A
:1046F000BDF802006421484300F0CFFB00F0DFFB6F
:104700006862BDF804006421484300F0C6FB00F075
:10471000D6FBA862EC622C636C63AC63EC637FBD78
:10472000BDF800006421484300F0B7FB00F0C7FB70
:104730002862BDF802006421484300F0AEFB00F09F
:10474000BEFB6862BDF804006421484300F0A5FB8D
:1047500000F0B5FBA86201E009E103E1BDF8060045
:104760006421484300F099FB00F0A9FBE8622C6348
:104770006C63AC63EC637FBDBDF80000642148430B
:1047800000F08BFB00F09BFB2862BDF80200642167
:10479000484300F082FB00F092FB6862BDF8040021
:1047A0006421484300F079FB00F089FBA862BDF862
:1047B00006006421484300F070FB00F080FBE862D3
:1047C000BDF808006421484300F067FB00F077FB68
:1047D00028636C63AC63EC637FBDBDF800006421AB
:1047E000484300F05AFB00F06AFB2862BDF8020063
:1047F0006421484300F051FB00F061FB6862BDF8A2
:1048000004006421484300F048FB00F058FBA86214
:10481000BDF806006421484300F03FFB00F04FFB69
:10482000E862BDF808006421484300F036FB00F060
:1048300046FB2863BDF80A006421484300F02DFBC5
:1048400000F03DFB6863AC63EC637FBDBDF8000026
:104850006421484300F021FB00F031FB2862BDF8E1
:1048600002006421484300F018FB00F028FB00E040
:104870002FE06862BDF804006421484300F00DFB9E
:1048800000F01DFBA862BDF806006421484300F05B
:1048900004FB00F014FBE862BDF808006421484303
:1048A00000F0FBFA00F00BFB2863BDF80A0064215E
:1048B000484300F0F2FA00F002FB6863BDF80C0018
:1048C0006421484300F0E9FA00F0F9FAA863EC63C8
:1048D0007FBDBDF800006421484300F0DEFA00F01F
:1048E000EEFA2862BDF802006421484300F0D5FAD0
:1048F00000F0E5FA6862BDF804006421484300F066
:10490000CCFA00F0DCFAA862BDF806006421484346
:1049100000F0C3FA00F0D3FAE862BDF808006421A1
:10492000484300F0BAFA00F0CAFA2863BDF80A005A
:104930006421484300F0B1FA00F0C1FA6863BDF8A1
:104940000C006421484300F0A8FA00F0B8FAA8630C
:10495000BDF80E006421484300F09FFA00F0AFFA62
:10496000E8637FBDAFF2B44000F0F2FD7FBD0821E7
:104970006846FDF7A3FBB5F850000326092856D278
:10498000DFE800F0050A1B346C9DCEFDFC00AFF69D
:10499000C01000F0DDFD7FBDBDF80000B0FBF6F0FB
:1049A00000F07BFA00F08BFA28626C62AC62EC6279
:1049B0002C636C63AC63EC637FBDBDF80000B0FB9F
:1049C000F6F000F06AFA00F07AFA2862BDF8020008
:1049D000B0FBF6F000F061FA00F071FA6862AC62C8
:1049E000EC622C636C63AC63EC637FBDBDF80000CC
:1049F000B0FBF6F000F051FA00F061FA2862BDF861
:104A00000200B0FBF6F000F048FA00F058FA6862D5
:104A1000BDF80400B0FBF6F000F03FFA00F04FFAEA
:104A2000A862EC622C636C63AC63EC637FBD3DE118
:104A30005C00002052656C61792067656172206EB0
:104A4000756D203D206E6F6E652C20536F206E6F4C
:104A50002063757272656E74210A0000BDF8000053
:104A6000B0FBF6F000F019FA00F029FA2862BDF860
:104A70000200B0FBF6F000F010FA00F020FA6862D5
:104A8000BDF80400B0FBF6F000F007FA00F017FAEA
:104A9000A862BDF80600B0FBF6F000F0FEF900F0E9
:104AA0000EFAE862BDF80800B0FBF6F000F0F5F988
:104AB00000F005FA28636C63AC63EC637FBDBDF85E
:104AC0000000B0FBF6F000F0E8F900F0F8F9286219
:104AD000BDF80200B0FBF6F000F0DFF900F0EFF9EE
:104AE0006862BDF80400B0FBF6F000F0D6F900F003
:104AF000E6F9A862BDF80600B0FBF6F000F0CDF9CB
:104B000000F0DDF9E862BDF80800B0FBF6F000F057
:104B1000C4F900F0D4F928636C63AC63EC637FBD27
:104B2000BDF80000B0FBF6F000F0B7F900F0C7F9EF
:104B30002862BDF80200B0FBF6F000F0AEF900F01C
:104B4000BEF96862BDF80400B0FBF6F000F0A5F90C
:104B500000F0B5F9A862BDF80600B0FBF6F000F071
:104B60009CF900F0ACF9E862BDF80800B0FBF6F083
:104B700000F093F900F0A3F9286301E04DE00BE0A9
:104B8000BDF80A00B0FBF6F000F087F900F097F9E5
:104B90006863AC63EC637FBDBDF80000B0FBF6F06A
:104BA00000F07BF900F08BF92862BDF80200B0FB41
:104BB000F6F000F072F900F082F96862BDF80400C6
:104BC000B0FBF6F000F069F900F079F9A862BDF8E1
:104BD0000600B0FBF6F000F060F900F070F9E86252
:104BE000BDF80800B0FBF6F000F057F900F067F9E7
:104BF0002863BDF80A00B0FBF6F000F04EF900F0B3
:104C00005EF96863BDF80C00B0FBF6F000F045F902
:104C100000F055F9A863EC637FBDBDF80000B0FB60
:104C2000F6F000F03AF900F04AF92862BDF8020007
:104C3000B0FBF6F000F031F900F041F96862BDF820
:104C40000400B0FBF6F000F028F900F038F9A86293
:104C5000BDF80600B0FBF6F000F01FF900F02FF9E8
:104C6000E862BDF80800B0FBF6F000F016F900F0BD
:104C700026F92863BDF80A00B0FBF6F000F00DF944
:104C800000F01DF96863BDF80C00B0FBF6F000F011
:104C900004F900F014F9A863BDF80E00B0FBF6F0BB
:104CA00000F0FBF800F00BF9E8637FBDAFF2FC7099
:104CB00000F04EFC7FBD2F4800210182418281829D
:104CC000C182018341838183C18301624162816228
:104CD000C162016341638163C163704710B5FEF730
:104CE000DFFD00212020FDF7B1FA00212220FDF791
:104CF000ADFA00212420FDF7A9FA00212620FDF7B6
:104D0000A5FA00212020FDF7D0FA00212220FDF78E
:104D1000CCFA00212420FDF7C8FA0021BDE810409C
:104D20002620FDF7C2BA14490870704700B5114833
:104D30000123134A81681148B1F57A7F06D3C2F87E
:104D4000A03103700120FFF7EEFF07E00021C2F859
:104D5000A011042101700220FFF7E5FFC2F898318D
:104D60000848036000BD0849002008600021202099
:104D7000FDF76CBA5C0000203C0000204C000020D5
:104D800000002342BC0121429801234280EA010233
:104D900010B502F00043400022D04A001FD0010E9F
:104DA00001EB1261C0F35600C2F3560240F400005A
:104DB00042F40002A0FB022000047F39140400D05A
:104DC000401C50EA124001D44000491EC2B20C06F9
:104DD00004EBD010401C4008802A02D003E00020E1
:104DE00010BD20F00100002900DA0020184310BD9A
:104DF00030B480EA010202F0004530F0004221F0B8
:104E0000004013D090B1C30DD40DC2F31601C0F30E
:104E10001600E41A41F4000140F400027D3491428E
:104E200001D3641C00E04900002C02DA30BC0020F1
:104E300070474FF400000023914201D3891A0343C5
:104E400040084FEA4101F7D151B1914202D14FF0F0
:104E5000004105E002D24FF0010101E06FF00101D5
:104E600003EBC450284430BC00F0F1B870B521F019
:104E7000004303430CD0C1F30A550024D5EB0405CD
:104E800064EB0403D617AD1AB34102DB00200146E0
:104E900070BD201841EB025170BD962300221146CF
:104EA00000F0DEB80EB540F2334102910021CDE9A9
:104EB00000110A460B4600F010F903B000BD20F0C7
:104EC0000040C10DC0F3160040F400007F2901DA54
:104ED00000207047962903DCC1F19601C840704755
:104EE000963988407047C1F30A5210B5C1F31301D7
:104EF00040F2FF3341F480119A4201DA002010BDE4
:104F000040F233439A42A2F2334203DC524200F0B1
:104F10008EF810BD904010BD00F0004230F000400F
:104F20000AD0C10D01F56071C0F3160042EA0151CB
:104F3000C20840071143704700200146704701F046
:104F4000004330B421F0004150EA010206D00A0DBE
:104F5000A2F56072C1F31301002A02DC30BC00200C
:104F60007047440F44EAC104C100E01830BC00EBB4
:104F7000C25000F06CB80000002801DBC0F1004016
:104F8000002901DBC1F1004181427047002801DBAB
:104F9000C0F10040002901DBC1F1004188427047A7
:104FA00030B50B46014600202022012409E021FAF9
:104FB00002F59D4205D303FA02F5491B04FA02F5F6
:104FC0002844151EA2F10102F1DC30BD2DE9F05F8D
:104FD0000546002092469B46884606468146402468
:104FE0001BE0284641464746224600F020F853463B
:104FF0005A46C01A914110D311461846224600F075
:1050000085FA2D1A67EB01084F4622460120002140
:1050100000F07CFA17EB00094E41201EA4F10104B8
:10502000DFDC484631462A464346BDE8F09F202A49
:1050300004DB203A21FA02F00021704721FA02F342
:10504000D040C2F120029140084319467047002920
:10505000A8BF7047401C490008BF20F001007047FE
:1050600010B4B0FA80FC00FA0CF050EA010404BF5E
:1050700010BC704749B1CCF1200421FA04F411FAB4
:105080000CF118BF012121430843A3EB0C01CB1DF8
:105090004FEA00614FEA102042BF002010BC704769
:1050A00000EBC35010440029A4BF10BC7047401C43
:1050B000490008BF20F0010010BC704710B5141E55
:1050C00073F1000408DA401C41F1000192185B41C1
:1050D0001A4301D120F0010010BD2DE9F04D924698
:1050E0009B4611B1B1FA81F202E0B0FA80F22032AF
:1050F000904600F00BFA04460F4640EA0A0041EAE7
:105100000B0153465A46084313D0114653EA010097
:1051100019D0C8F140025046FFF789FF05460E46F8
:1051200050465946424600F0F1F9084305D00120A7
:1051300004E020463946BDE8F08D0020054346EAEC
:10514000E0762C4337430A986305E40AA0EB080095
:105150000022FD0A44EA47540A3002D500200146E5
:10516000E9E7010510196941DDE9084500196941C0
:10517000BDE8F04DA2E72DE9FE4F804681EA03002D
:10518000C00F0C46009021F0004123F00045B8EB21
:105190000200A94105D24046214690461C460B46D6
:1051A000024623F00040104347D0270DC7F30A0002
:1051B000C3F30A510290401A019040286BDAC3F3FE
:1051C000130040F4801B0098924620B10023D2EBDC
:1051D000030A63EB0B0B01985946C0F1400250469D
:1051E00000F094F906460D4650465946019A00F0E3
:1051F0009CF910EB08006141002487EA115284EA0F
:10520000E7731A4340D0009A62B3019A012A4FEA29
:10521000075215DC001B61EB02014FF0004202EA6D
:105220000752CDE90042001C41F5801132462B4661
:10523000FFF753FF03B0BDE8F08F40462146F9E782
:10524000001B61EB0201001C41F5801300185B415B
:105250002018A2F5001747EB030140EAD570B619F4
:105260006D4111E06D084FEA360645EAC0754FEA18
:105270000752001B61EB0201001C41F58011490837
:105280004FEA30000019514132462B4603B0BDE8C9
:10529000F04FFFF713BF0098012240000023D0EB2E
:1052A000020263EBE073009821464FEAE074B8EB2A
:1052B000000061EB0401E9E783F000435BE781F064
:1052C000004158E72DE9FE4F81EA030404F0004451
:1052D00021F0004100944FF0000B23F0004350EA0E
:1052E00001045ED052EA03045BD0C3F30A54C1F355
:1052F0000A552C44A4F2F3340194A0FB0254C1F3E8
:10530000130141F48011C3F3130343F4801301FB31
:10531000024400FB034E840A970A44EA815447EA98
:105320008357A4FB076802958D0A05FB07854FEAA2
:10533000932C04FB0C542705029D4FEA065847EABC
:105340001637B5EB08056EEB070C870E920E47EA91
:10535000811742EA8312A7FB0201B6EB0B0164EB53
:1053600000042B0D43EA0C335E1844EB1C50DA4664
:105370005146E7FB0201C5F313044FEA0B3343EA3E
:1053800014534FEA0432019C43EA0603A4F10C04CF
:105390000294009CCDE900B4FFF79FFE03B0BDE886
:1053A000F08F00200146F9E72DE9F04D81EA030472
:1053B00004F0004B21F0004514464FF0000A23F0A2
:1053C000004150EA050220D054EA01021DD0C5F385
:1053D0000A570246C5F31303C1F31300C1F30A567B
:1053E00040F4801543F48013A7EB0608101BD64643
:1053F00008F2FD3873EB050002D308F1010801E063
:1054000092185B41B8F1000F03DA00200146BDE8B5
:10541000F08D00204FF48011064684460EE0171BE5
:1054200073EB050705D3121B63EB050306434CEA38
:10543000010C49084FEA300092185B4150EA01071D
:10544000EDD152EA030012D082EA040083EA05019A
:10545000084305D0101BAB4106D20122002306E011
:1054600000224FF0004302E06FF0010253101AEBEC
:1054700006004CEB085110EB0A0041EB0B01BDE8B4
:10548000F04DFFF71BBEC1F30A52C1F3130140F206
:10549000FF3341F480119A4202DA0020014670473E
:1054A00040F233439A42A2F2334202DC5242FFF707
:1054B000BEBD00F02BB8000030B5041E71F1000431
:1054C00004DB4FF00044404264EB0101141E73F111
:1054D000000405DB1C464FF00043524263EB04031B
:1054E000994208BF904230BD064C074D06E0E06887
:1054F00040F0010394E8070098471034AC42F6D31B
:10550000FAF71AFE4460000864600008202A04DBF1
:10551000203A00FA02F1002070479140C2F12003C6
:1055200020FA03F3194390407047202A06DBCB177B
:10553000203A41FA02F043EAE07306E041FA02F34E
:10554000D040C2F120029140084319467047000044
:105550000FB4054B10B503A9044A029800F0DAF81D
:1055600010BC5DF814FB00009932000858000020C0
:1055700002E008C8121F08C1002AFAD1704770471C
:10558000002001E001C1121F002AFBD1704700007A
:105590002DE9FF5F82B00021DDE90430020DDDF866
:1055A00040B0034318D044F61050A2F2FF324243F9
:1055B0001514119801281FD0A5EB0B00401C5FEAC1
:1055C000000A4FF000064E4FDFF83891B0465046C3
:1055D00015D5CAF1000413E0119801244AA301284B
:1055E00001D16FEA0B010298119AC0E90031C0E9BC
:1055F000024206B0BDE8F09FCBF10000DFE70446B1
:105600000021404A491842EB0450CDE9001012E055
:10561000E00707D032463B4640464946FFF752FE78
:105620008046894632463B4610461946FFF74AFEF9
:1056300006460F466410002CEAD1DDE90401DDE9DD
:105640000023BAF1000F06DAFFF73CFE42464B4654
:10565000FFF738FE05E0FFF7A7FE42464B46FFF78F
:10566000A3FE04460E460022284BFFF725FF03D871
:105670004FF0FF30014607E00022254B204631461F
:10568000FFF779FDFFF7FFFE102409E0002C0ADB8D
:105690000A220023FFF79AFC039B30321A55641E3E
:1056A00050EA0102F2D1641C039AC4F111031444BC
:1056B000119A012A03D0012208430DD10AE00843C0
:1056C00004D000204FF0110B119072E7A3EB0B05F3
:1056D0006D1E0DE05B4504DD4FF0000205F1010594
:1056E00004E003DA4FF00002A5F10105002AECD036
:1056F00002981199C0E90231C0E9004579E700003C
:10570000000014400000F03F300000000000F043B3
:105710000000E03F2DE9FF4F95B09B4689460646C5
:1057200000250FE2252877D100242746F84A0121D9
:10573000059400E0044316F8013F203B01FA03F012
:105740001042F7D130782A2811D06FF02F0330782B
:10575000A0F13002092A16D8059A44F0020402EB9F
:10576000820203EB42021044761C0590EFE759F8E1
:10577000042B0592002A03DA504244F400540590A9
:1057800044F00204761C30782E2816D116F8010F4A
:1057900044F004042A280DD06FF02F023078A0F1D5
:1057A0003003092B09D807EB870302EB4303C71823
:1057B000761CF3E759F8047B761C30786C280FD000
:1057C00006DC4C2817D068280DD06A2814D104E0D4
:1057D000742810D07A280FD10DE044F400140AE0A8
:1057E00044F4801401E044F440147278824202D1FF
:1057F00004F58014761C761C307866280BD013DCF8
:10580000582877D009DC002875D04528F6D04628DE
:10581000F4D047281AD19DE118E0632835D06428D8
:1058200079D0652812D195E1702873D008DC6728FB
:10583000F1D069286FD06E280DD06F2806D1B5E061
:1058400073282CD0752875D0782874D05A461799AB
:1058500090476D1C75E1C4F30250022809D003285B
:105860000DD0D9F8001004280DD00D6009F10409FD
:1058700067E1D9F80010EA17C1E90052F6E7D9F854
:1058800000100D80F2E70D70F0E719F8041B8DF899
:10589000001000208DF80100EA46012003E059F8CD
:1058A00004AB4FF0FF3061074FF0000102D40DE070
:1058B00008F101018846B9420FDA8045F8DB1AF891
:1058C00008100029F4D108E008F10101884681425E
:1058D000FADB1AF808100029F6D105985B46A0EB10
:1058E000080721463846179A00F094FA284400EB3E
:1058F000080507E04DE029E10DE01AF8010B5A46D2
:1059000017999047B8F10108F7D25B46214638460F
:10591000179A13E142E00A220092C4F302524FF0B8
:10592000000A022A08D059F804CB032A4FEAEC7186
:105930000AD00DE029E02AE009F1070121F0070271
:10594000F2E802C1914609E00FFA8CFC4FEAEC71D3
:10595000042A03D14FFA8CFC4FEAEC71002907DAD4
:105960000A460021DCF1000C61EB02012D2202E06D
:10597000220504D52B228DF80420012203E0E20742
:1059800001D02022F7E7904659E00A2102E01022D8
:105990000DE010214FF0000A00910BE010224FF0B3
:1059A000000A44F004040827009203E008224FF0A4
:1059B000000A0092C4F30252022A05D059F804CB1F
:1059C0000021032A08D009E009F1070121F00702AC
:1059D000F2E802C1914605E01FFA8CFC042A01D1CD
:1059E0000CF0FF0C4FF00008220728D5702806D0D5
:1059F000009B83F0100353EA0A0305D00EE0402217
:105A00008DF80420012208E05CEA010206D0302271
:105A10008DF804208DF8050002229046009B83F04B
:105A2000080353EA0A030AD15CEA010201D16207C2
:105A300005D530228DF804204FF001087F1E58282C
:105A400004D034A003900EA802900DE036A0F9E730
:105A500053466046009AFFF7B9FA84460398825C81
:105A60000298401E029002705CEA0100F0D1029898
:105A700006A9081A00F1200A600702D524F4803430
:105A800000E00127574502DDA7EB0A0000E00020F7
:105A900000EB0A01009005984144401A0590E0038C
:105AA00006D45B462146179A059800F0B3F90544E1
:105AB000002706E001A85A46C05D179990476D1C63
:105AC0007F1C4745F6DBE0030CD55B462146179A61
:105AD000059800F09FF9054404E030205A461799D4
